{
  "contractName": "BasicToken",
  "abi": [
    {
      "inputs": [],
      "stateMutability": "nonpayable",
      "type": "constructor"
    },
    {
      "anonymous": false,
      "inputs": [
        {
          "indexed": true,
          "internalType": "address",
          "name": "owner",
          "type": "address"
        },
        {
          "indexed": true,
          "internalType": "address",
          "name": "spender",
          "type": "address"
        },
        {
          "indexed": false,
          "internalType": "uint256",
          "name": "value",
          "type": "uint256"
        }
      ],
      "name": "Approval",
      "type": "event"
    },
    {
      "anonymous": false,
      "inputs": [
        {
          "indexed": true,
          "internalType": "address",
          "name": "from",
          "type": "address"
        },
        {
          "indexed": true,
          "internalType": "address",
          "name": "to",
          "type": "address"
        },
        {
          "indexed": false,
          "internalType": "uint256",
          "name": "value",
          "type": "uint256"
        }
      ],
      "name": "Transfer",
      "type": "event"
    },
    {
      "inputs": [
        {
          "internalType": "address",
          "name": "owner",
          "type": "address"
        },
        {
          "internalType": "address",
          "name": "spender",
          "type": "address"
        }
      ],
      "name": "allowance",
      "outputs": [
        {
          "internalType": "uint256",
          "name": "",
          "type": "uint256"
        }
      ],
      "stateMutability": "view",
      "type": "function",
      "constant": true
    },
    {
      "inputs": [
        {
          "internalType": "address",
          "name": "spender",
          "type": "address"
        },
        {
          "internalType": "uint256",
          "name": "amount",
          "type": "uint256"
        }
      ],
      "name": "approve",
      "outputs": [
        {
          "internalType": "bool",
          "name": "",
          "type": "bool"
        }
      ],
      "stateMutability": "nonpayable",
      "type": "function"
    },
    {
      "inputs": [
        {
          "internalType": "address",
          "name": "account",
          "type": "address"
        }
      ],
      "name": "balanceOf",
      "outputs": [
        {
          "internalType": "uint256",
          "name": "",
          "type": "uint256"
        }
      ],
      "stateMutability": "view",
      "type": "function",
      "constant": true
    },
    {
      "inputs": [],
      "name": "decimals",
      "outputs": [
        {
          "internalType": "uint8",
          "name": "",
          "type": "uint8"
        }
      ],
      "stateMutability": "view",
      "type": "function",
      "constant": true
    },
    {
      "inputs": [
        {
          "internalType": "address",
          "name": "spender",
          "type": "address"
        },
        {
          "internalType": "uint256",
          "name": "subtractedValue",
          "type": "uint256"
        }
      ],
      "name": "decreaseAllowance",
      "outputs": [
        {
          "internalType": "bool",
          "name": "",
          "type": "bool"
        }
      ],
      "stateMutability": "nonpayable",
      "type": "function"
    },
    {
      "inputs": [
        {
          "internalType": "address",
          "name": "spender",
          "type": "address"
        },
        {
          "internalType": "uint256",
          "name": "addedValue",
          "type": "uint256"
        }
      ],
      "name": "increaseAllowance",
      "outputs": [
        {
          "internalType": "bool",
          "name": "",
          "type": "bool"
        }
      ],
      "stateMutability": "nonpayable",
      "type": "function"
    },
    {
      "inputs": [],
      "name": "name",
      "outputs": [
        {
          "internalType": "string",
          "name": "",
          "type": "string"
        }
      ],
      "stateMutability": "view",
      "type": "function",
      "constant": true
    },
    {
      "inputs": [],
      "name": "symbol",
      "outputs": [
        {
          "internalType": "string",
          "name": "",
          "type": "string"
        }
      ],
      "stateMutability": "view",
      "type": "function",
      "constant": true
    },
    {
      "inputs": [],
      "name": "totalSupply",
      "outputs": [
        {
          "internalType": "uint256",
          "name": "",
          "type": "uint256"
        }
      ],
      "stateMutability": "view",
      "type": "function",
      "constant": true
    },
    {
      "inputs": [
        {
          "internalType": "address",
          "name": "to",
          "type": "address"
        },
        {
          "internalType": "uint256",
          "name": "amount",
          "type": "uint256"
        }
      ],
      "name": "transfer",
      "outputs": [
        {
          "internalType": "bool",
          "name": "",
          "type": "bool"
        }
      ],
      "stateMutability": "nonpayable",
      "type": "function"
    },
    {
      "inputs": [
        {
          "internalType": "address",
          "name": "from",
          "type": "address"
        },
        {
          "internalType": "address",
          "name": "to",
          "type": "address"
        },
        {
          "internalType": "uint256",
          "name": "amount",
          "type": "uint256"
        }
      ],
      "name": "transferFrom",
      "outputs": [
        {
          "internalType": "bool",
          "name": "",
          "type": "bool"
        }
      ],
      "stateMutability": "nonpayable",
      "type": "function"
    },
    {
      "inputs": [
        {
          "internalType": "uint256",
          "name": "_amount",
          "type": "uint256"
        }
      ],
      "name": "burnTokens",
      "outputs": [],
      "stateMutability": "nonpayable",
      "type": "function"
    },
    {
      "inputs": [
        {
          "internalType": "uint256",
          "name": "_amount",
          "type": "uint256"
        }
      ],
      "name": "mintTokens",
      "outputs": [],
      "stateMutability": "nonpayable",
      "type": "function"
    }
  ],
  "bytecode": "0x60806040523480156200001157600080fd5b506040518060400160405280600a81526020017f4261736963546f6b656e000000000000000000000000000000000000000000008152506040518060400160405280600381526020017f425354000000000000000000000000000000000000000000000000000000000081525081600390805190602001906200009692919062000290565b508060049080519060200190620000af92919062000290565b505050620000c6336127106200010d60201b60201c565b33600560006101000a81548173ffffffffffffffffffffffffffffffffffffffff021916908373ffffffffffffffffffffffffffffffffffffffff160217905550620004ec565b600073ffffffffffffffffffffffffffffffffffffffff168273ffffffffffffffffffffffffffffffffffffffff16141562000180576040517f08c379a00000000000000000000000000000000000000000000000000000000081526004016200017790620003a1565b60405180910390fd5b62000194600083836200028660201b60201c565b8060026000828254620001a89190620003fc565b92505081905550806000808473ffffffffffffffffffffffffffffffffffffffff1673ffffffffffffffffffffffffffffffffffffffff1681526020019081526020016000206000828254620001ff9190620003fc565b925050819055508173ffffffffffffffffffffffffffffffffffffffff16600073ffffffffffffffffffffffffffffffffffffffff167fddf252ad1be2c89b69c2b068fc378daa952ba7f163c4a11628f55a4df523b3ef836040516200026691906200046a565b60405180910390a362000282600083836200028b60201b60201c565b5050565b505050565b505050565b8280546200029e90620004b6565b90600052602060002090601f016020900481019282620002c257600085556200030e565b82601f10620002dd57805160ff19168380011785556200030e565b828001600101855582156200030e579182015b828111156200030d578251825591602001919060010190620002f0565b5b5090506200031d919062000321565b5090565b5b808211156200033c57600081600090555060010162000322565b5090565b600082825260208201905092915050565b7f45524332303a206d696e7420746f20746865207a65726f206164647265737300600082015250565b600062000389601f8362000340565b9150620003968262000351565b602082019050919050565b60006020820190508181036000830152620003bc816200037a565b9050919050565b6000819050919050565b7f4e487b7100000000000000000000000000000000000000000000000000000000600052601160045260246000fd5b60006200040982620003c3565b91506200041683620003c3565b9250827fffffffffffffffffffffffffffffffffffffffffffffffffffffffffffffffff038211156200044e576200044d620003cd565b5b828201905092915050565b6200046481620003c3565b82525050565b600060208201905062000481600083018462000459565b92915050565b7f4e487b7100000000000000000000000000000000000000000000000000000000600052602260045260246000fd5b60006002820490506001821680620004cf57607f821691505b60208210811415620004e657620004e562000487565b5b50919050565b611abe80620004fc6000396000f3fe608060405234801561001057600080fd5b50600436106100cf5760003560e01c80636d1b229d1161008c57806397304ced1161006657806397304ced14610228578063a457c2d714610244578063a9059cbb14610274578063dd62ed3e146102a4576100cf565b80636d1b229d146101be57806370a08231146101da57806395d89b411461020a576100cf565b806306fdde03146100d4578063095ea7b3146100f257806318160ddd1461012257806323b872dd14610140578063313ce56714610170578063395093511461018e575b600080fd5b6100dc6102d4565b6040516100e9919061111b565b60405180910390f35b61010c600480360381019061010791906111d6565b610366565b6040516101199190611231565b60405180910390f35b61012a610389565b604051610137919061125b565b60405180910390f35b61015a60048036038101906101559190611276565b610393565b6040516101679190611231565b60405180910390f35b6101786103c2565b60405161018591906112e5565b60405180910390f35b6101a860048036038101906101a391906111d6565b6103cb565b6040516101b59190611231565b60405180910390f35b6101d860048036038101906101d39190611300565b610475565b005b6101f460048036038101906101ef919061132d565b610534565b604051610201919061125b565b60405180910390f35b61021261057c565b60405161021f919061111b565b60405180910390f35b610242600480360381019061023d9190611300565b61060e565b005b61025e600480360381019061025991906111d6565b6106cd565b60405161026b9190611231565b60405180910390f35b61028e600480360381019061028991906111d6565b6107b7565b60405161029b9190611231565b60405180910390f35b6102be60048036038101906102b9919061135a565b6107da565b6040516102cb919061125b565b60405180910390f35b6060600380546102e3906113c9565b80601f016020809104026020016040519081016040528092919081815260200182805461030f906113c9565b801561035c5780601f106103315761010080835404028352916020019161035c565b820191906000526020600020905b81548152906001019060200180831161033f57829003601f168201915b5050505050905090565b600080610371610861565b905061037e818585610869565b600191505092915050565b6000600254905090565b60008061039e610861565b90506103ab858285610a34565b6103b6858585610ac0565b60019150509392505050565b60006012905090565b6000806103d6610861565b905061046a818585600160008673ffffffffffffffffffffffffffffffffffffffff1673ffffffffffffffffffffffffffffffffffffffff16815260200190815260200160002060008973ffffffffffffffffffffffffffffffffffffffff1673ffffffffffffffffffffffffffffffffffffffff16815260200190815260200160002054610465919061142a565b610869565b600191505092915050565b600560009054906101000a900473ffffffffffffffffffffffffffffffffffffffff1673ffffffffffffffffffffffffffffffffffffffff163373ffffffffffffffffffffffffffffffffffffffff1614610505576040517f08c379a00000000000000000000000000000000000000000000000000000000081526004016104fc906114cc565b60405180910390fd5b610531600560009054906101000a900473ffffffffffffffffffffffffffffffffffffffff1682610d41565b50565b60008060008373ffffffffffffffffffffffffffffffffffffffff1673ffffffffffffffffffffffffffffffffffffffff168152602001908152602001600020549050919050565b60606004805461058b906113c9565b80601f01602080910402602001604051908101604052809291908181526020018280546105b7906113c9565b80156106045780601f106105d957610100808354040283529160200191610604565b820191906000526020600020905b8154815290600101906020018083116105e757829003601f168201915b5050505050905090565b600560009054906101000a900473ffffffffffffffffffffffffffffffffffffffff1673ffffffffffffffffffffffffffffffffffffffff163373ffffffffffffffffffffffffffffffffffffffff161461069e576040517f08c379a0000000000000000000000000000000000000000000000000000000008152600401610695906114cc565b60405180910390fd5b6106ca600560009054906101000a900473ffffffffffffffffffffffffffffffffffffffff1682610f18565b50565b6000806106d8610861565b90506000600160008373ffffffffffffffffffffffffffffffffffffffff1673ffffffffffffffffffffffffffffffffffffffff16815260200190815260200160002060008673ffffffffffffffffffffffffffffffffffffffff1673ffffffffffffffffffffffffffffffffffffffff1681526020019081526020016000205490508381101561079e576040517f08c379a00000000000000000000000000000000000000000000000000000000081526004016107959061155e565b60405180910390fd5b6107ab8286868403610869565b60019250505092915050565b6000806107c2610861565b90506107cf818585610ac0565b600191505092915050565b6000600160008473ffffffffffffffffffffffffffffffffffffffff1673ffffffffffffffffffffffffffffffffffffffff16815260200190815260200160002060008373ffffffffffffffffffffffffffffffffffffffff1673ffffffffffffffffffffffffffffffffffffffff16815260200190815260200160002054905092915050565b600033905090565b600073ffffffffffffffffffffffffffffffffffffffff168373ffffffffffffffffffffffffffffffffffffffff1614156108d9576040517f08c379a00000000000000000000000000000000000000000000000000000000081526004016108d0906115f0565b60405180910390fd5b600073ffffffffffffffffffffffffffffffffffffffff168273ffffffffffffffffffffffffffffffffffffffff161415610949576040517f08c379a000000000000000000000000000000000000000000000000000000000815260040161094090611682565b60405180910390fd5b80600160008573ffffffffffffffffffffffffffffffffffffffff1673ffffffffffffffffffffffffffffffffffffffff16815260200190815260200160002060008473ffffffffffffffffffffffffffffffffffffffff1673ffffffffffffffffffffffffffffffffffffffff168152602001908152602001600020819055508173ffffffffffffffffffffffffffffffffffffffff168373ffffffffffffffffffffffffffffffffffffffff167f8c5be1e5ebec7d5bd14f71427d1e84f3dd0314c0f7b2291e5b200ac8c7c3b92583604051610a27919061125b565b60405180910390a3505050565b6000610a4084846107da565b90507fffffffffffffffffffffffffffffffffffffffffffffffffffffffffffffffff8114610aba5781811015610aac576040517f08c379a0000000000000000000000000000000000000000000000000000000008152600401610aa3906116ee565b60405180910390fd5b610ab98484848403610869565b5b50505050565b600073ffffffffffffffffffffffffffffffffffffffff168373ffffffffffffffffffffffffffffffffffffffff161415610b30576040517f08c379a0000000000000000000000000000000000000000000000000000000008152600401610b2790611780565b60405180910390fd5b600073ffffffffffffffffffffffffffffffffffffffff168273ffffffffffffffffffffffffffffffffffffffff161415610ba0576040517f08c379a0000000000000000000000000000000000000000000000000000000008152600401610b9790611812565b60405180910390fd5b610bab838383611078565b60008060008573ffffffffffffffffffffffffffffffffffffffff1673ffffffffffffffffffffffffffffffffffffffff16815260200190815260200160002054905081811015610c31576040517f08c379a0000000000000000000000000000000000000000000000000000000008152600401610c28906118a4565b60405180910390fd5b8181036000808673ffffffffffffffffffffffffffffffffffffffff1673ffffffffffffffffffffffffffffffffffffffff16815260200190815260200160002081905550816000808573ffffffffffffffffffffffffffffffffffffffff1673ffffffffffffffffffffffffffffffffffffffff1681526020019081526020016000206000828254610cc4919061142a565b925050819055508273ffffffffffffffffffffffffffffffffffffffff168473ffffffffffffffffffffffffffffffffffffffff167fddf252ad1be2c89b69c2b068fc378daa952ba7f163c4a11628f55a4df523b3ef84604051610d28919061125b565b60405180910390a3610d3b84848461107d565b50505050565b600073ffffffffffffffffffffffffffffffffffffffff168273ffffffffffffffffffffffffffffffffffffffff161415610db1576040517f08c379a0000000000000000000000000000000000000000000000000000000008152600401610da890611936565b60405180910390fd5b610dbd82600083611078565b60008060008473ffffffffffffffffffffffffffffffffffffffff1673ffffffffffffffffffffffffffffffffffffffff16815260200190815260200160002054905081811015610e43576040517f08c379a0000000000000000000000000000000000000000000000000000000008152600401610e3a906119c8565b60405180910390fd5b8181036000808573ffffffffffffffffffffffffffffffffffffffff1673ffffffffffffffffffffffffffffffffffffffff168152602001908152602001600020819055508160026000828254610e9a91906119e8565b92505081905550600073ffffffffffffffffffffffffffffffffffffffff168373ffffffffffffffffffffffffffffffffffffffff167fddf252ad1be2c89b69c2b068fc378daa952ba7f163c4a11628f55a4df523b3ef84604051610eff919061125b565b60405180910390a3610f138360008461107d565b505050565b600073ffffffffffffffffffffffffffffffffffffffff168273ffffffffffffffffffffffffffffffffffffffff161415610f88576040517f08c379a0000000000000000000000000000000000000000000000000000000008152600401610f7f90611a68565b60405180910390fd5b610f9460008383611078565b8060026000828254610fa6919061142a565b92505081905550806000808473ffffffffffffffffffffffffffffffffffffffff1673ffffffffffffffffffffffffffffffffffffffff1681526020019081526020016000206000828254610ffb919061142a565b925050819055508173ffffffffffffffffffffffffffffffffffffffff16600073ffffffffffffffffffffffffffffffffffffffff167fddf252ad1be2c89b69c2b068fc378daa952ba7f163c4a11628f55a4df523b3ef83604051611060919061125b565b60405180910390a36110746000838361107d565b5050565b505050565b505050565b600081519050919050565b600082825260208201905092915050565b60005b838110156110bc5780820151818401526020810190506110a1565b838111156110cb576000848401525b50505050565b6000601f19601f8301169050919050565b60006110ed82611082565b6110f7818561108d565b935061110781856020860161109e565b611110816110d1565b840191505092915050565b6000602082019050818103600083015261113581846110e2565b905092915050565b600080fd5b600073ffffffffffffffffffffffffffffffffffffffff82169050919050565b600061116d82611142565b9050919050565b61117d81611162565b811461118857600080fd5b50565b60008135905061119a81611174565b92915050565b6000819050919050565b6111b3816111a0565b81146111be57600080fd5b50565b6000813590506111d0816111aa565b92915050565b600080604083850312156111ed576111ec61113d565b5b60006111fb8582860161118b565b925050602061120c858286016111c1565b9150509250929050565b60008115159050919050565b61122b81611216565b82525050565b60006020820190506112466000830184611222565b92915050565b611255816111a0565b82525050565b6000602082019050611270600083018461124c565b92915050565b60008060006060848603121561128f5761128e61113d565b5b600061129d8682870161118b565b93505060206112ae8682870161118b565b92505060406112bf868287016111c1565b9150509250925092565b600060ff82169050919050565b6112df816112c9565b82525050565b60006020820190506112fa60008301846112d6565b92915050565b6000602082840312156113165761131561113d565b5b6000611324848285016111c1565b91505092915050565b6000602082840312156113435761134261113d565b5b60006113518482850161118b565b91505092915050565b600080604083850312156113715761137061113d565b5b600061137f8582860161118b565b92505060206113908582860161118b565b9150509250929050565b7f4e487b7100000000000000000000000000000000000000000000000000000000600052602260045260246000fd5b600060028204905060018216806113e157607f821691505b602082108114156113f5576113f461139a565b5b50919050565b7f4e487b7100000000000000000000000000000000000000000000000000000000600052601160045260246000fd5b6000611435826111a0565b9150611440836111a0565b9250827fffffffffffffffffffffffffffffffffffffffffffffffffffffffffffffffff03821115611475576114746113fb565b5b828201905092915050565b7f596f7520617265206e6f7420746865206f776e65720000000000000000000000600082015250565b60006114b660158361108d565b91506114c182611480565b602082019050919050565b600060208201905081810360008301526114e5816114a9565b9050919050565b7f45524332303a2064656372656173656420616c6c6f77616e63652062656c6f7760008201527f207a65726f000000000000000000000000000000000000000000000000000000602082015250565b600061154860258361108d565b9150611553826114ec565b604082019050919050565b600060208201905081810360008301526115778161153b565b9050919050565b7f45524332303a20617070726f76652066726f6d20746865207a65726f2061646460008201527f7265737300000000000000000000000000000000000000000000000000000000602082015250565b60006115da60248361108d565b91506115e58261157e565b604082019050919050565b60006020820190508181036000830152611609816115cd565b9050919050565b7f45524332303a20617070726f766520746f20746865207a65726f20616464726560008201527f7373000000000000000000000000000000000000000000000000000000000000602082015250565b600061166c60228361108d565b915061167782611610565b604082019050919050565b6000602082019050818103600083015261169b8161165f565b9050919050565b7f45524332303a20696e73756666696369656e7420616c6c6f77616e6365000000600082015250565b60006116d8601d8361108d565b91506116e3826116a2565b602082019050919050565b60006020820190508181036000830152611707816116cb565b9050919050565b7f45524332303a207472616e736665722066726f6d20746865207a65726f20616460008201527f6472657373000000000000000000000000000000000000000000000000000000602082015250565b600061176a60258361108d565b91506117758261170e565b604082019050919050565b600060208201905081810360008301526117998161175d565b9050919050565b7f45524332303a207472616e7366657220746f20746865207a65726f206164647260008201527f6573730000000000000000000000000000000000000000000000000000000000602082015250565b60006117fc60238361108d565b9150611807826117a0565b604082019050919050565b6000602082019050818103600083015261182b816117ef565b9050919050565b7f45524332303a207472616e7366657220616d6f756e742065786365656473206260008201527f616c616e63650000000000000000000000000000000000000000000000000000602082015250565b600061188e60268361108d565b915061189982611832565b604082019050919050565b600060208201905081810360008301526118bd81611881565b9050919050565b7f45524332303a206275726e2066726f6d20746865207a65726f2061646472657360008201527f7300000000000000000000000000000000000000000000000000000000000000602082015250565b600061192060218361108d565b915061192b826118c4565b604082019050919050565b6000602082019050818103600083015261194f81611913565b9050919050565b7f45524332303a206275726e20616d6f756e7420657863656564732062616c616e60008201527f6365000000000000000000000000000000000000000000000000000000000000602082015250565b60006119b260228361108d565b91506119bd82611956565b604082019050919050565b600060208201905081810360008301526119e1816119a5565b9050919050565b60006119f3826111a0565b91506119fe836111a0565b925082821015611a1157611a106113fb565b5b828203905092915050565b7f45524332303a206d696e7420746f20746865207a65726f206164647265737300600082015250565b6000611a52601f8361108d565b9150611a5d82611a1c565b602082019050919050565b60006020820190508181036000830152611a8181611a45565b905091905056fea2646970667358221220843491a9876a0e2d34ab8b11b9628287bcea208b2635def0250949bb406f095464736f6c634300080b0033",
  "immutableReferences": {},
  "source": "pragma solidity 0.8.11;\r\n\r\nimport \"@openzeppelin/contracts/token/ERC20/ERC20.sol\";\r\n\r\ncontract BasicToken is ERC20 {\r\n    \r\n    address private owner;\r\n\r\n    constructor() ERC20(\"BasicToken\", \"BST\"){\r\n        _mint(msg.sender, 10000);\r\n        owner = msg.sender;\r\n    }\r\n\r\n    modifier onlyOwner {\r\n       require(msg.sender == owner,\"You are not the owner\");\r\n       _;\r\n    }\r\n\r\n    function burnTokens(uint256 _amount) public onlyOwner(){\r\n        _burn(owner,_amount);\r\n    }\r\n\r\n    function mintTokens(uint256 _amount) public onlyOwner(){\r\n        _mint(owner,_amount);\r\n    }\r\n}",
  "sourcePath": "C:\\Users\\ralph\\OneDrive\\Desktop\\sol\\starter_kit\\src\\contracts\\BasicToken.sol",
  "compiler": {
    "name": "solc",
    "version": "0.8.11+commit.d7f03943.Emscripten.clang"
  },
  "schemaVersion": "3.4.5",
  "updatedAt": "2022-02-24T10:38:04.647Z",
  "networkType": "ethereum",
  "devdoc": {
    "kind": "dev",
    "methods": {
      "allowance(address,address)": {
        "details": "See {IERC20-allowance}."
      },
      "approve(address,uint256)": {
        "details": "See {IERC20-approve}. NOTE: If `amount` is the maximum `uint256`, the allowance is not updated on `transferFrom`. This is semantically equivalent to an infinite approval. Requirements: - `spender` cannot be the zero address."
      },
      "balanceOf(address)": {
        "details": "See {IERC20-balanceOf}."
      },
      "decimals()": {
        "details": "Returns the number of decimals used to get its user representation. For example, if `decimals` equals `2`, a balance of `505` tokens should be displayed to a user as `5.05` (`505 / 10 ** 2`). Tokens usually opt for a value of 18, imitating the relationship between Ether and Wei. This is the value {ERC20} uses, unless this function is overridden; NOTE: This information is only used for _display_ purposes: it in no way affects any of the arithmetic of the contract, including {IERC20-balanceOf} and {IERC20-transfer}."
      },
      "decreaseAllowance(address,uint256)": {
        "details": "Atomically decreases the allowance granted to `spender` by the caller. This is an alternative to {approve} that can be used as a mitigation for problems described in {IERC20-approve}. Emits an {Approval} event indicating the updated allowance. Requirements: - `spender` cannot be the zero address. - `spender` must have allowance for the caller of at least `subtractedValue`."
      },
      "increaseAllowance(address,uint256)": {
        "details": "Atomically increases the allowance granted to `spender` by the caller. This is an alternative to {approve} that can be used as a mitigation for problems described in {IERC20-approve}. Emits an {Approval} event indicating the updated allowance. Requirements: - `spender` cannot be the zero address."
      },
      "name()": {
        "details": "Returns the name of the token."
      },
      "symbol()": {
        "details": "Returns the symbol of the token, usually a shorter version of the name."
      },
      "totalSupply()": {
        "details": "See {IERC20-totalSupply}."
      },
      "transfer(address,uint256)": {
        "details": "See {IERC20-transfer}. Requirements: - `to` cannot be the zero address. - the caller must have a balance of at least `amount`."
      },
      "transferFrom(address,address,uint256)": {
        "details": "See {IERC20-transferFrom}. Emits an {Approval} event indicating the updated allowance. This is not required by the EIP. See the note at the beginning of {ERC20}. NOTE: Does not update the allowance if the current allowance is the maximum `uint256`. Requirements: - `from` and `to` cannot be the zero address. - `from` must have a balance of at least `amount`. - the caller must have allowance for ``from``'s tokens of at least `amount`."
      }
    },
    "version": 1
  },
  "userdoc": {
    "kind": "user",
    "methods": {},
    "version": 1
  }
}