{
  "contractName": "Game",
  "abi": [
    {
      "inputs": [],
      "stateMutability": "nonpayable",
      "type": "constructor"
    },
    {
      "inputs": [],
      "name": "admin",
      "outputs": [
        {
          "internalType": "address",
          "name": "",
          "type": "address"
        }
      ],
      "stateMutability": "view",
      "type": "function",
      "constant": true
    },
    {
      "inputs": [],
      "name": "fee",
      "outputs": [
        {
          "internalType": "uint256",
          "name": "",
          "type": "uint256"
        }
      ],
      "stateMutability": "view",
      "type": "function",
      "constant": true
    },
    {
      "inputs": [
        {
          "internalType": "uint256",
          "name": "",
          "type": "uint256"
        }
      ],
      "name": "games",
      "outputs": [
        {
          "internalType": "string",
          "name": "word",
          "type": "string"
        },
        {
          "internalType": "address",
          "name": "player",
          "type": "address"
        },
        {
          "internalType": "uint256",
          "name": "livesLeft",
          "type": "uint256"
        },
        {
          "internalType": "bool",
          "name": "won",
          "type": "bool"
        }
      ],
      "stateMutability": "view",
      "type": "function",
      "constant": true
    },
    {
      "inputs": [
        {
          "internalType": "address",
          "name": "",
          "type": "address"
        }
      ],
      "name": "startedGame",
      "outputs": [
        {
          "internalType": "uint256",
          "name": "",
          "type": "uint256"
        }
      ],
      "stateMutability": "view",
      "type": "function",
      "constant": true
    },
    {
      "inputs": [],
      "name": "wordsCount",
      "outputs": [
        {
          "internalType": "uint256",
          "name": "",
          "type": "uint256"
        }
      ],
      "stateMutability": "view",
      "type": "function",
      "constant": true
    },
    {
      "inputs": [],
      "name": "sendEther",
      "outputs": [],
      "stateMutability": "payable",
      "type": "function",
      "payable": true
    },
    {
      "inputs": [
        {
          "internalType": "uint256",
          "name": "_fee",
          "type": "uint256"
        }
      ],
      "name": "changeFee",
      "outputs": [],
      "stateMutability": "nonpayable",
      "type": "function"
    },
    {
      "inputs": [],
      "name": "getBalance",
      "outputs": [
        {
          "internalType": "uint256",
          "name": "",
          "type": "uint256"
        }
      ],
      "stateMutability": "view",
      "type": "function",
      "constant": true
    },
    {
      "inputs": [],
      "name": "getWords",
      "outputs": [
        {
          "internalType": "string[]",
          "name": "",
          "type": "string[]"
        }
      ],
      "stateMutability": "view",
      "type": "function",
      "constant": true
    },
    {
      "inputs": [
        {
          "internalType": "string",
          "name": "_word",
          "type": "string"
        }
      ],
      "name": "addWord",
      "outputs": [],
      "stateMutability": "nonpayable",
      "type": "function"
    },
    {
      "inputs": [
        {
          "internalType": "uint256",
          "name": "_choice",
          "type": "uint256"
        }
      ],
      "name": "startGame",
      "outputs": [],
      "stateMutability": "payable",
      "type": "function",
      "payable": true
    },
    {
      "inputs": [
        {
          "internalType": "string",
          "name": "_word",
          "type": "string"
        }
      ],
      "name": "checkWord",
      "outputs": [
        {
          "internalType": "bool",
          "name": "check",
          "type": "bool"
        }
      ],
      "stateMutability": "nonpayable",
      "type": "function"
    },
    {
      "inputs": [
        {
          "internalType": "uint256",
          "name": "_id",
          "type": "uint256"
        }
      ],
      "name": "getGameData",
      "outputs": [
        {
          "components": [
            {
              "internalType": "string",
              "name": "word",
              "type": "string"
            },
            {
              "internalType": "address",
              "name": "player",
              "type": "address"
            },
            {
              "internalType": "uint256",
              "name": "livesLeft",
              "type": "uint256"
            },
            {
              "internalType": "bool",
              "name": "won",
              "type": "bool"
            }
          ],
          "internalType": "struct Game.Game",
          "name": "",
          "type": "tuple"
        }
      ],
      "stateMutability": "view",
      "type": "function",
      "constant": true
    }
  ],
  "bytecode": "0x608060405234801561001057600080fd5b50670de0b6b3a764000060008190555033600360006101000a81548173ffffffffffffffffffffffffffffffffffffffff021916908373ffffffffffffffffffffffffffffffffffffffff16021790555061161a806100706000396000f3fe6080604052600436106100c25760003560e01c806381d980d41161007f578063dca7bcbe11610059578063dca7bcbe14610270578063ddca3f431461029b578063e5ed1d59146102c6578063f851a440146102e2576100c2565b806381d980d4146101b95780638faa1587146101f6578063b6a6566514610233576100c2565b80630e29df22146100c7578063117a5b90146100d157806312065fe0146101115780634974da811461013c57806369bdfbf6146101655780636a1db1bf14610190575b600080fd5b6100cf61030d565b005b3480156100dd57600080fd5b506100f860048036038101906100f39190610d5f565b610369565b6040516101089493929190610e90565b60405180910390f35b34801561011d57600080fd5b5061012661045e565b6040516101339190610edc565b60405180910390f35b34801561014857600080fd5b50610163600480360381019061015e919061102c565b610466565b005b34801561017157600080fd5b5061017a61055b565b6040516101879190610edc565b60405180910390f35b34801561019c57600080fd5b506101b760048036038101906101b29190610d5f565b610561565b005b3480156101c557600080fd5b506101e060048036038101906101db91906110a1565b61056b565b6040516101ed9190610edc565b60405180910390f35b34801561020257600080fd5b5061021d6004803603810190610218919061102c565b610583565b60405161022a91906110ce565b60405180910390f35b34801561023f57600080fd5b5061025a60048036038101906102559190610d5f565b61078e565b60405161026791906111c3565b60405180910390f35b34801561027c57600080fd5b506102856108d7565b60405161029291906112a7565b60405180910390f35b3480156102a757600080fd5b506102b0610a0a565b6040516102bd9190610edc565b60405180910390f35b6102e060048036038101906102db9190610d5f565b610a10565b005b3480156102ee57600080fd5b506102f7610c0c565b60405161030491906112c9565b60405180910390f35b600360009054906101000a900473ffffffffffffffffffffffffffffffffffffffff1673ffffffffffffffffffffffffffffffffffffffff163373ffffffffffffffffffffffffffffffffffffffff161461036757600080fd5b565b6005818154811061037957600080fd5b906000526020600020906004020160009150905080600001805461039c90611313565b80601f01602080910402602001604051908101604052809291908181526020018280546103c890611313565b80156104155780601f106103ea57610100808354040283529160200191610415565b820191906000526020600020905b8154815290600101906020018083116103f857829003601f168201915b5050505050908060010160009054906101000a900473ffffffffffffffffffffffffffffffffffffffff16908060020154908060030160009054906101000a900460ff16905084565b600047905090565b600360009054906101000a900473ffffffffffffffffffffffffffffffffffffffff1673ffffffffffffffffffffffffffffffffffffffff163373ffffffffffffffffffffffffffffffffffffffff16146104c057600080fd5b6005815114610504576040517f08c379a00000000000000000000000000000000000000000000000000000000081526004016104fb90611391565b60405180910390fd5b60016000815480929190610517906113e0565b9190505550600281908060018154018082558091505060019003906000526020600020016000909190919091509080519060200190610557929190610c32565b5050565b60015481565b8060008190555050565b60046020528060005260406000206000915090505481565b600080600460003373ffffffffffffffffffffffffffffffffffffffff1673ffffffffffffffffffffffffffffffffffffffff168152602001908152602001600020549050826040516020016105d99190611465565b6040516020818303038152906040528051906020012060056001836105fe919061147c565b8154811061060f5761060e6114b0565b5b90600052602060002090600402016000016040516020016106309190611573565b60405160208183030381529060405280519060200120141561073a573373ffffffffffffffffffffffffffffffffffffffff166108fc6002600054610675919061158a565b9081150290604051600060405180830381858888f193505050501580156106a0573d6000803e3d6000fd5b50600160056001836106b2919061147c565b815481106106c3576106c26114b0565b5b906000526020600020906004020160030160006101000a81548160ff0219169083151502179055506000600460003373ffffffffffffffffffffffffffffffffffffffff1673ffffffffffffffffffffffffffffffffffffffff168152602001908152602001600020819055506001915050610789565b6001600560018361074b919061147c565b8154811061075c5761075b6114b0565b5b9060005260206000209060040201600201600082825461077c919061147c565b9250508190555060009150505b919050565b610796610cb8565b600582815481106107aa576107a96114b0565b5b90600052602060002090600402016040518060800160405290816000820180546107d390611313565b80601f01602080910402602001604051908101604052809291908181526020018280546107ff90611313565b801561084c5780601f106108215761010080835404028352916020019161084c565b820191906000526020600020905b81548152906001019060200180831161082f57829003601f168201915b505050505081526020016001820160009054906101000a900473ffffffffffffffffffffffffffffffffffffffff1673ffffffffffffffffffffffffffffffffffffffff1673ffffffffffffffffffffffffffffffffffffffff168152602001600282015481526020016003820160009054906101000a900460ff1615151515815250509050919050565b6060600360009054906101000a900473ffffffffffffffffffffffffffffffffffffffff1673ffffffffffffffffffffffffffffffffffffffff163373ffffffffffffffffffffffffffffffffffffffff161461093357600080fd5b6002805480602002602001604051908101604052809291908181526020016000905b82821015610a0157838290600052602060002001805461097490611313565b80601f01602080910402602001604051908101604052809291908181526020018280546109a090611313565b80156109ed5780601f106109c2576101008083540402835291602001916109ed565b820191906000526020600020905b8154815290600101906020018083116109d057829003601f168201915b505050505081526020019060010190610955565b50505050905090565b60005481565b6000543414610a1e57600080fd5b6000604051806080016040528060028481548110610a3f57610a3e6114b0565b5b906000526020600020018054610a5490611313565b80601f0160208091040260200160405190810160405280929190818152602001828054610a8090611313565b8015610acd5780601f10610aa257610100808354040283529160200191610acd565b820191906000526020600020905b815481529060010190602001808311610ab057829003601f168201915b505050505081526020013373ffffffffffffffffffffffffffffffffffffffff1681526020016006815260200160001515815250905060058190806001815401808255809150506001900390600052602060002090600402016000909190919091506000820151816000019080519060200190610b4b929190610c32565b5060208201518160010160006101000a81548173ffffffffffffffffffffffffffffffffffffffff021916908373ffffffffffffffffffffffffffffffffffffffff1602179055506040820151816002015560608201518160030160006101000a81548160ff0219169083151502179055505050600580549050600460003373ffffffffffffffffffffffffffffffffffffffff1673ffffffffffffffffffffffffffffffffffffffff168152602001908152602001600020819055505050565b600360009054906101000a900473ffffffffffffffffffffffffffffffffffffffff1681565b828054610c3e90611313565b90600052602060002090601f016020900481019282610c605760008555610ca7565b82601f10610c7957805160ff1916838001178555610ca7565b82800160010185558215610ca7579182015b82811115610ca6578251825591602001919060010190610c8b565b5b509050610cb49190610cf8565b5090565b604051806080016040528060608152602001600073ffffffffffffffffffffffffffffffffffffffff168152602001600081526020016000151581525090565b5b80821115610d11576000816000905550600101610cf9565b5090565b6000604051905090565b600080fd5b600080fd5b6000819050919050565b610d3c81610d29565b8114610d4757600080fd5b50565b600081359050610d5981610d33565b92915050565b600060208284031215610d7557610d74610d1f565b5b6000610d8384828501610d4a565b91505092915050565b600081519050919050565b600082825260208201905092915050565b60005b83811015610dc6578082015181840152602081019050610dab565b83811115610dd5576000848401525b50505050565b6000601f19601f8301169050919050565b6000610df782610d8c565b610e018185610d97565b9350610e11818560208601610da8565b610e1a81610ddb565b840191505092915050565b600073ffffffffffffffffffffffffffffffffffffffff82169050919050565b6000610e5082610e25565b9050919050565b610e6081610e45565b82525050565b610e6f81610d29565b82525050565b60008115159050919050565b610e8a81610e75565b82525050565b60006080820190508181036000830152610eaa8187610dec565b9050610eb96020830186610e57565b610ec66040830185610e66565b610ed36060830184610e81565b95945050505050565b6000602082019050610ef16000830184610e66565b92915050565b600080fd5b600080fd5b7f4e487b7100000000000000000000000000000000000000000000000000000000600052604160045260246000fd5b610f3982610ddb565b810181811067ffffffffffffffff82111715610f5857610f57610f01565b5b80604052505050565b6000610f6b610d15565b9050610f778282610f30565b919050565b600067ffffffffffffffff821115610f9757610f96610f01565b5b610fa082610ddb565b9050602081019050919050565b82818337600083830152505050565b6000610fcf610fca84610f7c565b610f61565b905082815260208101848484011115610feb57610fea610efc565b5b610ff6848285610fad565b509392505050565b600082601f83011261101357611012610ef7565b5b8135611023848260208601610fbc565b91505092915050565b60006020828403121561104257611041610d1f565b5b600082013567ffffffffffffffff8111156110605761105f610d24565b5b61106c84828501610ffe565b91505092915050565b61107e81610e45565b811461108957600080fd5b50565b60008135905061109b81611075565b92915050565b6000602082840312156110b7576110b6610d1f565b5b60006110c58482850161108c565b91505092915050565b60006020820190506110e36000830184610e81565b92915050565b600082825260208201905092915050565b600061110582610d8c565b61110f81856110e9565b935061111f818560208601610da8565b61112881610ddb565b840191505092915050565b61113c81610e45565b82525050565b61114b81610d29565b82525050565b61115a81610e75565b82525050565b6000608083016000830151848203600086015261117d82826110fa565b91505060208301516111926020860182611133565b5060408301516111a56040860182611142565b5060608301516111b86060860182611151565b508091505092915050565b600060208201905081810360008301526111dd8184611160565b905092915050565b600081519050919050565b600082825260208201905092915050565b6000819050602082019050919050565b600061121d83836110fa565b905092915050565b6000602082019050919050565b600061123d826111e5565b61124781856111f0565b93508360208202850161125985611201565b8060005b8581101561129557848403895281516112768582611211565b945061128183611225565b925060208a0199505060018101905061125d565b50829750879550505050505092915050565b600060208201905081810360008301526112c18184611232565b905092915050565b60006020820190506112de6000830184610e57565b92915050565b7f4e487b7100000000000000000000000000000000000000000000000000000000600052602260045260246000fd5b6000600282049050600182168061132b57607f821691505b6020821081141561133f5761133e6112e4565b5b50919050565b7f576f72642073686f756c642062652073697a65206f6620350000000000000000600082015250565b600061137b601883610d97565b915061138682611345565b602082019050919050565b600060208201905081810360008301526113aa8161136e565b9050919050565b7f4e487b7100000000000000000000000000000000000000000000000000000000600052601160045260246000fd5b60006113eb82610d29565b91507fffffffffffffffffffffffffffffffffffffffffffffffffffffffffffffffff82141561141e5761141d6113b1565b5b600182019050919050565b600081905092915050565b600061143f82610d8c565b6114498185611429565b9350611459818560208601610da8565b80840191505092915050565b60006114718284611434565b915081905092915050565b600061148782610d29565b915061149283610d29565b9250828210156114a5576114a46113b1565b5b828203905092915050565b7f4e487b7100000000000000000000000000000000000000000000000000000000600052603260045260246000fd5b60008190508160005260206000209050919050565b6000815461150181611313565b61150b8186611429565b9450600182166000811461152657600181146115375761156a565b60ff1983168652818601935061156a565b611540856114df565b60005b8381101561156257815481890152600182019150602081019050611543565b838801955050505b50505092915050565b600061157f82846114f4565b915081905092915050565b600061159582610d29565b91506115a083610d29565b9250817fffffffffffffffffffffffffffffffffffffffffffffffffffffffffffffffff04831182151516156115d9576115d86113b1565b5b82820290509291505056fea2646970667358221220be58212d1d30778d0284705c044d278659400c134a84980e003fd57ffccd1a8f64736f6c634300080b0033",
  "immutableReferences": {},
  "source": "// SPDX-License-Identifier: MIT\r\n\r\npragma solidity 0.8.11;\r\n\r\ncontract Game {\r\n  \r\n  uint256 public fee;\r\n  uint256 public wordsCount;\r\n\r\n  string[] private words;\r\n  \r\n  address public admin;\r\n  \r\n  mapping(address => uint256) public startedGame;\r\n  \r\n  struct Game {\r\n      string word;\r\n      address player;\r\n      uint livesLeft;\r\n      bool won;\r\n  } \r\n  \r\n  Game[] public games;\r\n\r\n  constructor() {\r\n    fee = 1 ether;\r\n    admin = msg.sender;\r\n  }\r\n\r\n  modifier onlyAdmin{\r\n    require(msg.sender == admin);\r\n    _;\r\n  }\r\n\r\n  function sendEther() public payable onlyAdmin{}\r\n\r\n  function changeFee(uint256 _fee) public {\r\n    fee = _fee;\r\n  }\r\n\r\n  function getBalance() public view returns(uint256){\r\n    return address(this).balance;\r\n  }\r\n\r\n  function getWords() public view onlyAdmin returns(string[] memory){\r\n    return words;\r\n  }\r\n\r\n  function addWord(string memory _word) public onlyAdmin   {\r\n    require(bytes(_word).length==5,\"Word should be size of 5\");\r\n    wordsCount++;\r\n    words.push(_word);\r\n  }\r\n\r\n  function startGame(uint256 _choice) public payable {\r\n    require(msg.value == fee);\r\n    Game memory g = Game(words[_choice],msg.sender,6,false);\r\n    games.push(g);\r\n    startedGame[msg.sender] = games.length;\r\n  }\r\n\r\n  function checkWord( string memory _word) public returns(bool check){\r\n    uint256 id = startedGame[msg.sender];\r\n    // error in the if statement \r\n    if(keccak256(abi.encodePacked((games[id-1].word))) == keccak256(abi.encodePacked((_word)))){\r\n      payable(msg.sender).transfer(fee*2);\r\n      games[id-1].won = true;\r\n      startedGame[msg.sender] = 0;\r\n      return true;\r\n    }\r\n    else{\r\n      games[id-1].livesLeft -= 1;\r\n      return false;\r\n    }\r\n  }\r\n\r\n  function getGameData (uint256 _id) public view returns(Game memory){\r\n    return games[_id];\r\n  }\r\n\r\n}",
  "sourcePath": "C:\\Users\\ralph\\OneDrive\\Desktop\\Programs\\sol\\guessing_game\\contracts\\Game.sol",
  "compiler": {
    "name": "solc",
    "version": "0.8.11+commit.d7f03943.Emscripten.clang"
  },
  "schemaVersion": "3.4.5",
  "updatedAt": "2022-04-05T14:26:00.715Z",
  "networkType": "ethereum",
  "devdoc": {
    "kind": "dev",
    "methods": {},
    "version": 1
  },
  "userdoc": {
    "kind": "user",
    "methods": {},
    "version": 1
  }
}