{
  "contractName": "Game",
  "abi": [
    {
      "inputs": [],
      "stateMutability": "nonpayable",
      "type": "constructor"
    },
    {
      "inputs": [],
      "name": "admin",
      "outputs": [
        {
          "internalType": "address",
          "name": "",
          "type": "address"
        }
      ],
      "stateMutability": "view",
      "type": "function",
      "constant": true
    },
    {
      "inputs": [],
      "name": "fee",
      "outputs": [
        {
          "internalType": "uint256",
          "name": "",
          "type": "uint256"
        }
      ],
      "stateMutability": "view",
      "type": "function",
      "constant": true
    },
    {
      "inputs": [
        {
          "internalType": "uint256",
          "name": "",
          "type": "uint256"
        }
      ],
      "name": "games",
      "outputs": [
        {
          "internalType": "string",
          "name": "word",
          "type": "string"
        },
        {
          "internalType": "address",
          "name": "player",
          "type": "address"
        },
        {
          "internalType": "uint256",
          "name": "livesLeft",
          "type": "uint256"
        },
        {
          "internalType": "bool",
          "name": "won",
          "type": "bool"
        }
      ],
      "stateMutability": "view",
      "type": "function",
      "constant": true
    },
    {
      "inputs": [
        {
          "internalType": "address",
          "name": "",
          "type": "address"
        }
      ],
      "name": "startedGame",
      "outputs": [
        {
          "internalType": "uint256",
          "name": "",
          "type": "uint256"
        }
      ],
      "stateMutability": "view",
      "type": "function",
      "constant": true
    },
    {
      "inputs": [],
      "name": "wordsCount",
      "outputs": [
        {
          "internalType": "uint256",
          "name": "",
          "type": "uint256"
        }
      ],
      "stateMutability": "view",
      "type": "function",
      "constant": true
    },
    {
      "inputs": [],
      "name": "sendEther",
      "outputs": [],
      "stateMutability": "payable",
      "type": "function",
      "payable": true
    },
    {
      "inputs": [
        {
          "internalType": "uint256",
          "name": "_fee",
          "type": "uint256"
        }
      ],
      "name": "changeFee",
      "outputs": [],
      "stateMutability": "nonpayable",
      "type": "function"
    },
    {
      "inputs": [],
      "name": "getBalance",
      "outputs": [
        {
          "internalType": "uint256",
          "name": "",
          "type": "uint256"
        }
      ],
      "stateMutability": "view",
      "type": "function",
      "constant": true
    },
    {
      "inputs": [],
      "name": "getWords",
      "outputs": [
        {
          "internalType": "string[]",
          "name": "",
          "type": "string[]"
        }
      ],
      "stateMutability": "view",
      "type": "function",
      "constant": true
    },
    {
      "inputs": [
        {
          "internalType": "string",
          "name": "_word",
          "type": "string"
        }
      ],
      "name": "addWord",
      "outputs": [],
      "stateMutability": "nonpayable",
      "type": "function"
    },
    {
      "inputs": [
        {
          "internalType": "uint256",
          "name": "_choice",
          "type": "uint256"
        }
      ],
      "name": "startGame",
      "outputs": [],
      "stateMutability": "payable",
      "type": "function",
      "payable": true
    },
    {
      "inputs": [
        {
          "internalType": "string",
          "name": "_word",
          "type": "string"
        }
      ],
      "name": "checkWord",
      "outputs": [
        {
          "internalType": "bool",
          "name": "check",
          "type": "bool"
        }
      ],
      "stateMutability": "nonpayable",
      "type": "function"
    }
  ],
  "bytecode": "0x608060405234801561001057600080fd5b50670de0b6b3a76400006000819055506001808190555033600360006101000a81548173ffffffffffffffffffffffffffffffffffffffff021916908373ffffffffffffffffffffffffffffffffffffffff160217905550611387806100776000396000f3fe6080604052600436106100a75760003560e01c806381d980d41161006457806381d980d41461019e5780638faa1587146101db578063dca7bcbe14610218578063ddca3f4314610243578063e5ed1d591461026e578063f851a4401461028a576100a7565b80630e29df22146100ac578063117a5b90146100b657806312065fe0146100f65780634974da811461012157806369bdfbf61461014a5780636a1db1bf14610175575b600080fd5b6100b46102b5565b005b3480156100c257600080fd5b506100dd60048036038101906100d89190610b7e565b610311565b6040516100ed9493929190610caf565b60405180910390f35b34801561010257600080fd5b5061010b610406565b6040516101189190610cfb565b60405180910390f35b34801561012d57600080fd5b5061014860048036038101906101439190610e4b565b61040e565b005b34801561015657600080fd5b5061015f610503565b60405161016c9190610cfb565b60405180910390f35b34801561018157600080fd5b5061019c60048036038101906101979190610b7e565b610509565b005b3480156101aa57600080fd5b506101c560048036038101906101c09190610ec0565b610513565b6040516101d29190610cfb565b60405180910390f35b3480156101e757600080fd5b5061020260048036038101906101fd9190610e4b565b61052b565b60405161020f9190610eed565b60405180910390f35b34801561022457600080fd5b5061022d610736565b60405161023a9190611014565b60405180910390f35b34801561024f57600080fd5b50610258610869565b6040516102659190610cfb565b60405180910390f35b61028860048036038101906102839190610b7e565b61086f565b005b34801561029657600080fd5b5061029f610a6b565b6040516102ac9190611036565b60405180910390f35b600360009054906101000a900473ffffffffffffffffffffffffffffffffffffffff1673ffffffffffffffffffffffffffffffffffffffff163373ffffffffffffffffffffffffffffffffffffffff161461030f57600080fd5b565b6005818154811061032157600080fd5b906000526020600020906004020160009150905080600001805461034490611080565b80601f016020809104026020016040519081016040528092919081815260200182805461037090611080565b80156103bd5780601f10610392576101008083540402835291602001916103bd565b820191906000526020600020905b8154815290600101906020018083116103a057829003601f168201915b5050505050908060010160009054906101000a900473ffffffffffffffffffffffffffffffffffffffff16908060020154908060030160009054906101000a900460ff16905084565b600047905090565b600360009054906101000a900473ffffffffffffffffffffffffffffffffffffffff1673ffffffffffffffffffffffffffffffffffffffff163373ffffffffffffffffffffffffffffffffffffffff161461046857600080fd5b60058151146104ac576040517f08c379a00000000000000000000000000000000000000000000000000000000081526004016104a3906110fe565b60405180910390fd5b6002819080600181540180825580915050600190039060005260206000200160009091909190915090805190602001906104e7929190610a91565b50600160008154809291906104fb9061114d565b919050555050565b60015481565b8060008190555050565b60046020528060005260406000206000915090505481565b600080600460003373ffffffffffffffffffffffffffffffffffffffff1673ffffffffffffffffffffffffffffffffffffffff1681526020019081526020016000205490508260405160200161058191906111d2565b6040516020818303038152906040528051906020012060056001836105a691906111e9565b815481106105b7576105b661121d565b5b90600052602060002090600402016000016040516020016105d891906112e0565b6040516020818303038152906040528051906020012014156106e2573373ffffffffffffffffffffffffffffffffffffffff166108fc600260005461061d91906112f7565b9081150290604051600060405180830381858888f19350505050158015610648573d6000803e3d6000fd5b506001600560018361065a91906111e9565b8154811061066b5761066a61121d565b5b906000526020600020906004020160030160006101000a81548160ff0219169083151502179055506000600460003373ffffffffffffffffffffffffffffffffffffffff1673ffffffffffffffffffffffffffffffffffffffff168152602001908152602001600020819055506001915050610731565b600160056001836106f391906111e9565b815481106107045761070361121d565b5b9060005260206000209060040201600201600082825461072491906111e9565b9250508190555060009150505b919050565b6060600360009054906101000a900473ffffffffffffffffffffffffffffffffffffffff1673ffffffffffffffffffffffffffffffffffffffff163373ffffffffffffffffffffffffffffffffffffffff161461079257600080fd5b6002805480602002602001604051908101604052809291908181526020016000905b828210156108605783829060005260206000200180546107d390611080565b80601f01602080910402602001604051908101604052809291908181526020018280546107ff90611080565b801561084c5780601f106108215761010080835404028352916020019161084c565b820191906000526020600020905b81548152906001019060200180831161082f57829003601f168201915b5050505050815260200190600101906107b4565b50505050905090565b60005481565b600054341461087d57600080fd5b600060405180608001604052806002848154811061089e5761089d61121d565b5b9060005260206000200180546108b390611080565b80601f01602080910402602001604051908101604052809291908181526020018280546108df90611080565b801561092c5780601f106109015761010080835404028352916020019161092c565b820191906000526020600020905b81548152906001019060200180831161090f57829003601f168201915b505050505081526020013373ffffffffffffffffffffffffffffffffffffffff16815260200160068152602001600015158152509050600581908060018154018082558091505060019003906000526020600020906004020160009091909190915060008201518160000190805190602001906109aa929190610a91565b5060208201518160010160006101000a81548173ffffffffffffffffffffffffffffffffffffffff021916908373ffffffffffffffffffffffffffffffffffffffff1602179055506040820151816002015560608201518160030160006101000a81548160ff0219169083151502179055505050600580549050600460003373ffffffffffffffffffffffffffffffffffffffff1673ffffffffffffffffffffffffffffffffffffffff168152602001908152602001600020819055505050565b600360009054906101000a900473ffffffffffffffffffffffffffffffffffffffff1681565b828054610a9d90611080565b90600052602060002090601f016020900481019282610abf5760008555610b06565b82601f10610ad857805160ff1916838001178555610b06565b82800160010185558215610b06579182015b82811115610b05578251825591602001919060010190610aea565b5b509050610b139190610b17565b5090565b5b80821115610b30576000816000905550600101610b18565b5090565b6000604051905090565b600080fd5b600080fd5b6000819050919050565b610b5b81610b48565b8114610b6657600080fd5b50565b600081359050610b7881610b52565b92915050565b600060208284031215610b9457610b93610b3e565b5b6000610ba284828501610b69565b91505092915050565b600081519050919050565b600082825260208201905092915050565b60005b83811015610be5578082015181840152602081019050610bca565b83811115610bf4576000848401525b50505050565b6000601f19601f8301169050919050565b6000610c1682610bab565b610c208185610bb6565b9350610c30818560208601610bc7565b610c3981610bfa565b840191505092915050565b600073ffffffffffffffffffffffffffffffffffffffff82169050919050565b6000610c6f82610c44565b9050919050565b610c7f81610c64565b82525050565b610c8e81610b48565b82525050565b60008115159050919050565b610ca981610c94565b82525050565b60006080820190508181036000830152610cc98187610c0b565b9050610cd86020830186610c76565b610ce56040830185610c85565b610cf26060830184610ca0565b95945050505050565b6000602082019050610d106000830184610c85565b92915050565b600080fd5b600080fd5b7f4e487b7100000000000000000000000000000000000000000000000000000000600052604160045260246000fd5b610d5882610bfa565b810181811067ffffffffffffffff82111715610d7757610d76610d20565b5b80604052505050565b6000610d8a610b34565b9050610d968282610d4f565b919050565b600067ffffffffffffffff821115610db657610db5610d20565b5b610dbf82610bfa565b9050602081019050919050565b82818337600083830152505050565b6000610dee610de984610d9b565b610d80565b905082815260208101848484011115610e0a57610e09610d1b565b5b610e15848285610dcc565b509392505050565b600082601f830112610e3257610e31610d16565b5b8135610e42848260208601610ddb565b91505092915050565b600060208284031215610e6157610e60610b3e565b5b600082013567ffffffffffffffff811115610e7f57610e7e610b43565b5b610e8b84828501610e1d565b91505092915050565b610e9d81610c64565b8114610ea857600080fd5b50565b600081359050610eba81610e94565b92915050565b600060208284031215610ed657610ed5610b3e565b5b6000610ee484828501610eab565b91505092915050565b6000602082019050610f026000830184610ca0565b92915050565b600081519050919050565b600082825260208201905092915050565b6000819050602082019050919050565b600082825260208201905092915050565b6000610f5082610bab565b610f5a8185610f34565b9350610f6a818560208601610bc7565b610f7381610bfa565b840191505092915050565b6000610f8a8383610f45565b905092915050565b6000602082019050919050565b6000610faa82610f08565b610fb48185610f13565b935083602082028501610fc685610f24565b8060005b858110156110025784840389528151610fe38582610f7e565b9450610fee83610f92565b925060208a01995050600181019050610fca565b50829750879550505050505092915050565b6000602082019050818103600083015261102e8184610f9f565b905092915050565b600060208201905061104b6000830184610c76565b92915050565b7f4e487b7100000000000000000000000000000000000000000000000000000000600052602260045260246000fd5b6000600282049050600182168061109857607f821691505b602082108114156110ac576110ab611051565b5b50919050565b7f576f72642073686f756c642062652073697a65206f6620350000000000000000600082015250565b60006110e8601883610bb6565b91506110f3826110b2565b602082019050919050565b60006020820190508181036000830152611117816110db565b9050919050565b7f4e487b7100000000000000000000000000000000000000000000000000000000600052601160045260246000fd5b600061115882610b48565b91507fffffffffffffffffffffffffffffffffffffffffffffffffffffffffffffffff82141561118b5761118a61111e565b5b600182019050919050565b600081905092915050565b60006111ac82610bab565b6111b68185611196565b93506111c6818560208601610bc7565b80840191505092915050565b60006111de82846111a1565b915081905092915050565b60006111f482610b48565b91506111ff83610b48565b9250828210156112125761121161111e565b5b828203905092915050565b7f4e487b7100000000000000000000000000000000000000000000000000000000600052603260045260246000fd5b60008190508160005260206000209050919050565b6000815461126e81611080565b6112788186611196565b9450600182166000811461129357600181146112a4576112d7565b60ff198316865281860193506112d7565b6112ad8561124c565b60005b838110156112cf578154818901526001820191506020810190506112b0565b838801955050505b50505092915050565b60006112ec8284611261565b915081905092915050565b600061130282610b48565b915061130d83610b48565b9250817fffffffffffffffffffffffffffffffffffffffffffffffffffffffffffffffff04831182151516156113465761134561111e565b5b82820290509291505056fea2646970667358221220aa74f39364c5d55217146b6a08a847e135804ee2a5b7aa7dbd0c329249f93f7364736f6c634300080b0033",
  "immutableReferences": {},
  "source": "// SPDX-License-Identifier: MIT\r\n\r\npragma solidity 0.8.11;\r\n\r\ncontract Game {\r\n  \r\n  uint256 public fee;\r\n  uint256 public wordsCount;\r\n\r\n  string[] private words;\r\n  \r\n  address public admin;\r\n  \r\n  mapping(address => uint256) public startedGame;\r\n  \r\n  struct Game {\r\n      string word;\r\n      address player;\r\n      uint livesLeft;\r\n      bool won;\r\n  } \r\n  \r\n  Game[] public games;\r\n\r\n  constructor() {\r\n    fee = 1 ether;\r\n    wordsCount=1;\r\n    admin = msg.sender;\r\n  }\r\n\r\n  modifier onlyAdmin{\r\n    require(msg.sender == admin);\r\n    _;\r\n  }\r\n\r\n  function sendEther() public payable onlyAdmin{}\r\n\r\n  function changeFee(uint256 _fee) public {\r\n    fee = _fee;\r\n  }\r\n\r\n  function getBalance() public view returns(uint256){\r\n    return address(this).balance;\r\n  }\r\n\r\n  function getWords() public view onlyAdmin returns(string[] memory){\r\n    return words;\r\n  }\r\n\r\n  function addWord(string memory _word) public onlyAdmin   {\r\n    require(bytes(_word).length==5,\"Word should be size of 5\");\r\n    words.push(_word);\r\n    wordsCount++;\r\n  }\r\n\r\n  function startGame(uint256 _choice) public payable {\r\n    require(msg.value == fee);\r\n    Game memory g = Game(words[_choice],msg.sender,6,false);\r\n    games.push(g);\r\n    startedGame[msg.sender] = games.length;\r\n  }\r\n\r\n  function checkWord( string memory _word) public returns(bool check){\r\n    uint256 id = startedGame[msg.sender];\r\n    // error in the if statement \r\n    if(keccak256(abi.encodePacked((games[id-1].word))) == keccak256(abi.encodePacked((_word)))){\r\n      payable(msg.sender).transfer(fee*2);\r\n      games[id-1].won = true;\r\n      startedGame[msg.sender] = 0;\r\n      return true;\r\n    }\r\n    else{\r\n      games[id-1].livesLeft -= 1;\r\n      return false;\r\n    }\r\n  }\r\n\r\n}",
  "sourcePath": "C:\\Users\\ralph\\OneDrive\\Desktop\\Programs\\sol\\guessing_game\\contracts\\Game.sol",
  "compiler": {
    "name": "solc",
    "version": "0.8.11+commit.d7f03943.Emscripten.clang"
  },
  "schemaVersion": "3.4.5",
  "updatedAt": "2022-04-04T19:46:08.743Z",
  "networkType": "ethereum",
  "devdoc": {
    "kind": "dev",
    "methods": {},
    "version": 1
  },
  "userdoc": {
    "kind": "user",
    "methods": {},
    "version": 1
  }
}